:100000000C944E080C9479080C9479080C94790897
:100010000C9479080C9479080C9479080C9479085C
:100020000C9479080C9479080C94FB530C94755239
:100030000C9479080C9479080C9479080C9479083C
:100040000C9479080C945C3D0C9479080C94790814
:100050000C9479080C9479080C94454A0C943E5100
:100060000C9479080C9479080C9479080C9479080C
:100070000C9479080C9479080C9479080C947908FC
:100080000C9479080C9479080C9479080C947908EC
:100090000C9479080C947908084AD73B3BCE016E42
:1000A00084BCBFFDC12F3D6C74319ABD56833DDACF
:1000B0003D00C77F11BED9E4BB4C3E916BAAAABEDE
:1000C000000000803F05A84CCDB2D44EB93836A907
:1000D000020C50B9918688083CA6AAAA2ABE000044
:1000E00000803F4572726F723A005072696E74659B
:1000F000722073746F707065642064657520746F0E
:10010000206572726F72732E20466978207468655C
:10011000206572726F7220616E6420757365204D68
:1001200039393920746F2072657374617274212EAD
:10013000202854656D7065726174757265206973ED
:100140002072657365742E20536574206974206273
:1001500065666F72652072657374617274696E672B
:1001600029005072696E7465722068616C746564F0
:100170002E206B696C6C28292063616C6C6564208F
:100180002121006F6B00526573656E643A006563F0
:10019000686F3A002200556E6B6E6F776E20636F4A
:1001A0006D6D616E643A22007A5F6D696E3A007916
:1001B0005F6D696E3A00785F6D696E3A005A3A0079
:1001C000593A0020436F756E7420583A00453A0042
:1001D0005A3A00593A00583A004D696B6520416E11
:1001E000647265777300323031342D30352D323002
:1001F00000312E302E3020524332004D61726C6936
:100200006E20004649524D574152455F4E414D4583
:100210003A4D61726C696E2056313B2053707269A1
:100220006E7465722F6772626C206D617368757091
:100230000A4D414348494E455F545950453A4D6532
:100240006E64656C2045585452554445525F434F87
:10025000554E543A310A0020423A0020453A0054A3
:100260003A0020573A0020453A00543A0020403ADC
:1002700000202F0020423A00202F006F6B20543ABC
:10028000005072696E7465722073746F707065646B
:100290002064657520746F206572726F72732E20F2
:1002A00046697820746865206572726F7220616E8D
:1002B0006420757365204D39393920746F2072655B
:1002C0007374617274212E202854656D706572619B
:1002D000747572652069732072657365742E20537E
:1002E0006574206974206265666F7265207265733B
:1002F00074617274696E6729006F6B004E6F204CD9
:10030000696E65204E756D6265722077697468202C
:10031000636865636B73756D2C204C617374204C3E
:10032000696E653A004E6F20436865636B73756D47
:100330002077697468206C696E65206E756D6265E2
:10034000722C204C617374204C696E653A006368AE
:1003500065636B73756D206D69736D617463682C73
:10036000204C617374204C696E653A004C696E656F
:10037000204E756D626572206973206E6F74204C1B
:10038000617374204C696E65204E756D6265722BC9
:10039000312C204C617374204C696E653A0020202A
:1003A000506C616E6E6572427566666572427974F4
:1003B00065733A20002046726565204D656D6F7249
:1003C000793A20004D696B6520416E6472657773E0
:1003D00000207C20417574686F723A200032303101
:1003E000342D30352D323000204C6173742055701F
:1003F00064617465643A2000312E302E30205243FF
:1004000032004D61726C696E20002200656E71755C
:1004100065696E672022006563686F3A0020746F1B
:100420006F206C6F6E6720657874727573696F6E7C
:100430002070726576656E7465640020636F6C640D
:1004400020657874727573696F6E20707265766559
:100450006E7465640024F404D9201BC40C5C0E98EF
:1004600004C4095F0265077101F405F900FB04B3D8
:100470000048048700C10369005803550003034581
:1004800000BE023A008402310053022A00290225EC
:100490000004022000E4011C00C8011900AF01178C
:1004A0000098011400840113007101100061011013
:1004B0000051010E0043010D0036010B002B010B12
:1004C0000020010B00150109000C010900030108BF
:1004D00000FB000800F3000800EB000700E4000642
:1004E00000DE000600D8000600D2000600CC0005A1
:1004F00000C7000500C2000500BD000400B90004EB
:1005000000B5000400B1000400AD000400A900041F
:1005100000A5000300A20003009F0004009B00034D
:100520000098000300950002009300030090000370
:10053000008D0002008B000300880002008600028C
:100540000084000300810002007F0002007D0002A1
:10055000007B0002007900020077000100760002B3
:10056000007400020072000100710002006F0002BE
:10057000006D0001006C0002006A000100690002C9
:1005800000670001006600010065000100640002D0
:10059000006200010061000100600001005F0002D4
:1005A000005D0001005C0001005B0001005A0001D9
:1005B00000590001005800010057000100560001D9
:1005C00000550001005400010053000000530001D9
:1005D000005200010051000100500001004F0001D5
:1005E000004E0000004E0001004D0001004C0001D3
:1005F000004B0000004B0001004A000100490001CF
:1006000000480000004800010047000100460000CB
:1006100000460001004500000045000100440001C3
:1006200000430000004300010042000000420001BE
:10063000004100000041000100400001003F0000B7
:10064000003F0001003E0000003E0001003D0000B0
:10065000003D0001003C0000003C0000003C0001A7
:10066000003B0000003B0001003A0000003A00019E
:100670000039000000390001003800000038000097
:10068000003800010037000000370001003600008C
:100690000036000000360001003500000035000083
:1006A0000035000100340000003400000034000177
:1006B000003300000033000000330001003200006E
:1006C0000032000000320001003100000031000063
:1006D0000031000100300000003000000030000157
:1006E000002F0000002F0000002F0000002F00014D
:1006F000002E0000002E0000002E0001002D000042
:10070000002D0000002D0000002D0001002C000035
:10071000002C0000002C0000002C0001002B000029
:10072000002B0000002B0000002B0001002A00001D
:10073000002A0000002A0000002A00010029000011
:100740000029000000290000002900000029000104
:1007500000280000002800000028000000280000F9
:1007600000280001002700000027000000270000EB
:1007700000270000002700010026000000260000DE
:1007800000260000002600000026000100250000D1
:1007900000250000002500000025000000250000C5
:1007A00000250001002400000024000000240000B7
:1007B00000240000002400010023000000230000AA
:1007C000002300000023000000230000002300009D
:1007D000002300010022000000220000002200008F
:1007E0000022000000220000002200010021000081
:1007F0000021000000210000002100000021000075
:100800000021000000210001002000000020000065
:100810000020000000200000002000000020000058
:100820000020000000200001001F0000001F000049
:10083000001F0000001F0000001F0000001F00003C
:10084000001F0001001E0000001E0000001E00002E
:10085000001E00000024F4D43050C38E20C2A240F9
:1008600017828B7011127A910D816CD90AA861E1FF
:1008700008C7586607615143061E4B5D05C145A771
:10088000041A411104093D9803713931034036DBE4
:100890000265339102D4305402802E1D02632CEE87
:1008A00001752AC501B028A001102781018F256498
:1008B000012B244B01E0223401AC211F018D200DBE
:1008C00001801FFC00841EED00971DDF00B81CD2C4
:1008D00000E61BC600201BBC00641AB200B219A8B7
:1008E000000A19A0006A189900D117910040178BCF
:1008F00000B516840031167E00B31579003A1573E1
:1009000000C7146F0058146A00EE13660088136362
:100910000025135E00C7125B006C125700151254BD
:1009200000C111510070114F0021114B00D6104928
:10093000008D1047004610440002104200C00F40D6
:1009400000800F3E00420F3C00060F3B00CB0E38EC
:1009500000930E37005C0E3500270E3400F30D3285
:1009600000C10D3100900D3000600D2E00320D2DB4
:1009700000050D2C00D90C2B00AE0C2900850C298C
:10098000005C0C2700350C27000E0C2600E80B2419
:1009900000C40B2400A00B23007D0B23005A0B2165
:1009A00000390B2100180B2000F80A1F00D90A1E7D
:1009B00000BB0A1E009D0A1D00800A1D00630A1C60
:1009C00000470A1B002C0A1B00110A1A00F7091A1B
:1009D00000DD091900C4091900AB091900920917B3
:1009E000007B091800630917004C09160036091628
:1009F00000200916000A091500F5081500E0081482
:100A000000CC081400B8081400A4081400900813BF
:100A1000007D0812006B08130058081200460812E7
:100A200000340811002308110012081100010811F8
:100A300000F0071000E0071000D0071000C00710FA
:100A400000B0070F00A107100091070E0083070FE9
:100A50000074070F0065070E0057070E0049070EC8
:100A6000003B070D002E070E0020070D0013070D99
:100A70000006070D00F9060C00ED060D00E0060C5F
:100A800000D4060C00C8060C00BC060C00B0060C16
:100A900000A4060B0099060C008D060B0082060BC5
:100AA0000077060B006C060B0061060A0057060B68
:100AB000004C060A0042060A0038060A002E060A02
:100AC0000024060A001A060A001006090007060A92
:100AD00000FD050900F4050900EB050900E2050920
:100AE00000D9050900D0050900C7050900BE0509A0
:100AF00000B5050800AD050800A50509009C05081E
:100B000000940508008C050800840508007C050891
:100B100000740508006C050700650508005D050701
:100B200000560508004E0507004705070040050868
:100B30000038050700310507002A050700230507CF
:100B4000001C050600160507000F0507000805062E
:100B50000002050700FB040600F5040700EE04068A
:100B600000E8040600E2040700DB040600D50406E2
:100B700000CF040600C9040600C3040600BD040635
:100B800000B7040600B1040500AC040600A6040684
:100B900000A00405009B04060095040500900406CF
:100BA000008A04050085040500800406007A040517
:100BB0000075040500700405006B0405006604055B
:100BC00000610405005C040500570405005204059B
:100BD000004D04050048040500430405003E0404DC
:100BE000003A04050035040500300404002C040517
:100BF0000027040400230405001E0404001A040452
:100C00000016040500110404000D04040009040585
:100C1000000404040000040400FC030400F80304BE
:100C200000F4030400F0030400EC030400E80304F0
:100C300000E4030400E0030400DC030400D8030420
:100C400000D4030400D0030400CC030400C8030351
:100C500000C50303006563686F3A00205A3A00201C
:100C6000593A0020583A00656E6473746F707320AF
:100C70006869743A20004572726F723A0054656D6B
:100C80007065726174757265206865617465642051
:100C9000626564207377697463686564206F666653
:100CA0002E204D415854454D502074726967676538
:100CB000726564202121003A20457874727564655C
:100CC00072207377697463686564206F66662E208E
:100CD0004D494E54454D5020747269676765726581
:100CE000642021003A20457874727564657220731F
:100CF00077697463686564206F66662E204D41587D
:100D000054454D502074726967676572656420218F
:100D10000070012C0190012701B0012201C0011DCA
:100D200001F00118011002130130020E01600209E6
:100D30000190020401C002FF000003FA004003F525
:100D4000008003F000D003EB002004E6007004E113
:100D500000E004DC004005D700C005D2004006CD0D
:100D600000D006C8008007C3003008BE00F008B9F4
:100D700000C009B400B00AAF00B00BAA00D00CA5A7
:100D800000000EA000500F9B00C010960050129162
:100D90000000148C00C0158700B0178200B0197DC8
:100DA00000D01B7800001E730040206E0090226966
:100DB00000F024640040275F0090295A00E02B5582
:100DC00000102E500020304B0010324600E033411E
:100DD0000090353C001037370070383200A0392DB4
:100DE00000B03A2800A03B2300603C1E00103D19D3
:100DF00000903D1400103E0F00703E0A00C03E05FA
:100E000000003F0000202D20496E76616C6964204F
:100E10006578747275646572206E756D6265722096
:100E20002100202D20496E76616C696420657874FC
:100E30007275646572206E756D626572210050492D
:100E400044204175746F74756E652066696E6973B0
:100E5000686564202120506C61636520746865209A
:100E60004B702C204B6920616E64204B6420636FB3
:100E70006E7374616E747320696E2074686520638C
:100E80006F6E66696775726174696F6E2E68005067
:100E90004944204175746F74756E65206661696C94
:100EA0006564212074696D656F75740020403A0097
:100EB0006F6B20543A00504944204175746F74752B
:100EC0006E65206661696C6564212054656D70658E
:100ED00072617475726520746F206869676800209C
:100EE0004B643A2000204B693A2000204B703A2096
:100EF0000020436C617369632050494420002054F2
:100F0000753A2000204B753A2000206D61783A2018
:100F100000206D696E3A200020643A20002062694A
:100F200061733A2000012902290429082910292087
:100F30002940298029012C022C012602260426089A
:100F4000261026202640268026402C802C012302B5
:100F5000230423082310232023402380230120027D
:100F600020042008201020202040208020102C2049
:100F70002C012F022F042F082F102F202F402F80FD
:100F80002F7EFE7EFD7EFB7EF77EEF7EDF7EBF7EC8
:100F90007F00010000C50F1200020000D70F4300C0
:100FA0000300001A1004010309041E1018020309AB
:100FB000043810160303090450100C0001C102018B
:100FC00080360181361201000202000020C0168323
:100FD0000400010102030109024300020100C032C2
:100FE000090400000102020100052400100105248B
:100FF00001000104240206052406000107058203FE
:1010000008004009040100020A000000070503026D
:10101000400000070584024000000403090418038F
:101020005400650065006E0073007900640075006F
:1010300069006E006F000000160355005300420067
:101040002000530065007200690061006C00000020
:101050000C03310032003300340035000000494EEB
:1010600046494E4954594E414ECDCCCC3D0AD7232A
:101070003C17B7D13877CC2B329595E6241FB14F6A
:101080000A000020410000C84200401C4620BCBEAF
:101090004CCA1B0E5AAEC59D74004D5711241FBE7D
:1010A000CFEFD0E2DEBFCDBF12E0A0E0B1E0E0E5DF
:1010B000FAEB00E00BBF02C007900D92AA3AB1070D
:1010C000D9F71BBE1AE0AAEAB2E001C01D92A83A05
:1010D000B107E1F710E1CCE9D0E104C02297FE01AD
:1010E0000E94E05CCA39D107C9F70E9479540C9478
:1010F000265D0C940000A0E0B0E0E1E8F8E00C947C
:10110000F55CEC015B016115710519F0FB01918340
:101110008083F9908F2D90E00E94E45C892BC9F7C1
:10112000FDE2FF1621F4F990EE24E39405C02BE2D2
:10113000F21609F4F990EE248E0101501040C80116
:101140006EE570E143E050E062D2892BF9F48E0144
:101150000E5F1F4FC80161E670E145E050E057D2D5
:10116000892B19F48E01095F1F4FA114B10419F0E6
:10117000F50111830083E0FC04C070E090E080E89A
:1011800013C070E090E080E86FEF07C1C80166E629
:1011900070E143E050E03BD2892B69F4A114B10423
:1011A00029F470E090E080EC6FE7F7C02296F5013B
:1011B000D183C083F6CF8824992440E050E060E0DA
:1011C00070E0EF2DE053EA30A0F5F2E0EF2A8E2D2B
:1011D00090E09C0128703070E2FE06C0232B79F568
:1011E0000894811C911C2BC0232B19F008948108B2
:1011F0009108DB01CA0112E0880F991FAA1FBB1FCB
:101200001A95D1F7480F591F6A1F7B1F440F551FAE
:10121000661F771F4E0F511D611D711D483929E949
:10122000520729E9620729E1720748F084E0E82AB9
:1012300006C0EE3F31F4E3FC39C098E0E92AF990AA
:10124000C0CFE53311F0E53189F529912D3219F43C
:10125000E0E1EE2A05C02B3219F081E090E003C0F6
:10126000299182E090E0E22FE053EA3018F0C81BA9
:10127000D90B1CC020E030E0FCE020383F075CF4D4
:10128000C901880F991F880F991F280F391F220F36
:10129000331F2E0F311DE991E053EA3068F3E4FE6D
:1012A00003C0309521953F4F820E931ECE2CDD2436
:1012B000E1FE07C0A114B10421F02197F501D1830B
:1012C000C083CB01BA010E9449597B018C01F3E034
:1012D000CF22DD2423E0C216D10421F417FB1095A0
:1012E00017F9109557016801C801B70120E030E0F7
:1012F00040E050E00E94A958882309F44AC097FEB4
:101300000DC02DE7E22E20E1F22E909481949108F9
:101310009394C0E2D0E000E010E012C095E9E92E1D
:1013200090E1F92EF6CFF701259135914591549131
:10133000C601B5010E94895B5B016C018C1A9D0A94
:101340008C169D0684F7D595C7950F5F1F4F063005
:10135000110529F08CEF9FEFE80EF91EF1CFC501C2
:10136000D6017C018D018C2D880F8D2D881F8F3F1C
:1013700051F0C601B50120E030E040E050E00E94AD
:10138000A958882331F482E290E09093A70A8093D1
:10139000A60A7E2D9F2D802F612F272F392F482FB2
:1013A000562FB901CA01CDB7DEB7ECE00C94115D40
:1013B0002F923F925F926F927F928F929F92AF9205
:1013C000BF92CF92DF92EF92FF920F931F93CF9332
:1013D000DF938C011B01EA016115710519F0FB0116
:1013E00091838083209749F0CE010297839728F05C
:1013F00020E030E040E050E0F6C0F801A1908F011D
:101400008A2D90E00E94E45C892BB9F7FDE2AF16CB
:1014100031F4F801A1908F015524539407C0FBE2E9
:10142000AF1619F4F801A1908F015524209719F0F7
:10143000C031D105C1F4F0E3AF1679F4F801808131
:10144000883711F0883549F4F801A1800E5F1F4FED
:10145000F2E05F2AC0E1D0E006C0209721F480E3EB
:10146000A816E9F427C0C830D10531F1C930D1053B
:1014700024F4C230D10531F50CC0CA30D10589F051
:10148000C031D105F9F4C12CD12CE12CB8E0FB2EF0
:1014900028C0C12CD12CE12CA0E4FA2E22C0CAE035
:1014A000D0E0FCECCF2EFCECDF2EFCECEF2EFCE0D1
:1014B000FF2E17C0C8E0D0E0C12CD12CE12CE0E118
:1014C000FE2E0FC09E01442737FD4095542F60E04B
:1014D00070E080E090E80E948D5CC901DA016C0147
:1014E0007D0120E030E040E050E060E03E018824F3
:1014F00077FC8094982C70EDB72EBA0CE9E0EB15D0
:1015000070F48A2D81548A3118F499ECB92E06C0F2
:101510008A2D81568A3150F589EAB82EBA0C8B2D66
:1015200090E08C179D0714F56F3FE1F0C216D306CB
:10153000E406F506B0F0CA01B901A40193010E94C6
:101540005B5C9B01AC012B0D311D411D511D2130F8
:10155000F0E03F07F0E04F07F0E85F0710F461E0CC
:1015600001C06FEFF801A1908F01C5CF21143104A4
:1015700081F0662331F001501040F10111830083A6
:1015800008C051FE1AC002501040F10111830083BF
:1015900014C067FF12C050FC05C02FEF3FEF4FEFA4
:1015A0005FE704C020E030E040E050E882E290E0F5
:1015B0009093A70A8093A60A16C050FE08C05095C3
:1015C0004095309521953F4F4F4F5F4F0CC057FFCF
:1015D0000AC082E290E09093A70A8093A60A2FEFB8
:1015E0003FEF4FEF5FE7B901CA01DF91CF911F9144
:1015F0000F91FF90EF90DF90CF90BF90AF909F90B2
:101600008F907F906F905F903F902F900895FB0197
:10161000DC014150504088F08D9181341CF08B35B5
:101620000CF4805E659161341CF06B350CF4605EE7
:10163000861B611171F3990B0895881BFCCFFC0187
:101640008191861721F08823D9F79927089531973A
:10165000CF010895FB0151915523A9F0BF01DC0191
:101660004D9145174111E1F759F4CD01019000204A
:1016700049F04D9140154111C9F3FB014111EFCFE4
:1016800081E090E001970895AEE0B0E0EAE4FBE08D
:101690000C94FD5C0D891E8986E08C831A83098376
:1016A0008FEF9FE79E838D839E01275E3F4FCE0184
:1016B00001966F89788DA9010AD02F813885020F94
:1016C000131FF80110822E96E4E00C94195DABE034
:1016D000B0E0EDE6FBE00C94EF5C3C012B015A011D
:1016E000FC0117821682838181FD03C06FEF7FEFBB
:1016F000B9C19AE0892E1E010894211C311CF30106
:101700002381F20123FD859123FF81912F018823FD
:1017100009F4A5C1853239F423FD859123FF819118
:101720002F01853221F490E0B301B7D1E8CF982F93
:10173000FF24EE249924FFE1FF15D0F09B3269F0DD
:101740009C3228F4903259F0933291F40EC09D32BD
:1017500049F0903369F441E024C052E0F52A84E076
:10176000F82A28C098E0F92A25C0E0E1FE2A22C024
:10177000F7FC29C0892F80538A3070F4F6FE05C02B
:10178000989C902C1124980E15C0E89CE02C1124F4
:10179000E80EF0E2FF2A0EC09E3229F4F6FC5FC18B
:1017A00040E4F42A07C09C3619F450E8F52A02C038
:1017B000983649F4F20123FD959123FF91912F0171
:1017C000992309F0B8CF892F8554833018F08052BF
:1017D000833038F444E050E0A40EB51E5FE3598333
:1017E0000FC0933631F0933779F0933509F052C03A
:1017F0001FC0F5018081898342E050E0A40EB51E30
:10180000610101E010E011C0F501C080D180F6FC5B
:1018100003C06FEF7FEF02C0692D70E042E050E03F
:10182000A40EB51EC6012ED18C015FE7F52213C0B0
:10183000F501C080D180F6FC03C06FEF7FEF02C0DE
:10184000692D70E042E050E0A40EB51EC6010FD134
:101850008C0150E8F52AF3FE06C018C080E290E043
:10186000B3011BD1EA948E2D90E008171907B0F34D
:101870000DC0F601F7FC8591F7FE81916F0190E0B4
:10188000B3010BD1E110EA9401501040011511058C
:1018900081F7E2C0943611F0993661F5F7FE08C081
:1018A000F501208131814281538184E090E00AC0BA
:1018B000F501808191819C01442737FD4095542F8B
:1018C00082E090E0A80EB91E9FE6F92257FF09C0FA
:1018D00050954095309521953F4F4F4F5F4FE0E831
:1018E000FE2ACA01B901A1012AE030E002D1D82EB6
:1018F000D2183FC0953729F41F2D1F7E2AE030E013
:101900001DC01F2D197F9F3661F0903720F4983548
:1019100009F0A5C00FC0903739F0983709F09FC083
:1019200004C028E030E00AC0106114FD146020E11A
:1019300030E004C014FD166020E132E017FF08C05B
:10194000F501608171818281938144E050E008C09B
:10195000F50180819181BC0180E090E042E050E09F
:10196000A40EB51EA101C5D0D82ED2188FE7F82E2F
:10197000F122F6FE0BC05EEFF522D91438F4F4FE26
:1019800007C0F2FC05C08FEEF82202C01D2D01C079
:10199000192DF4FE0DC0FE01ED0DF11D8081803387
:1019A00019F499EEF92208C01F5FF2FE05C003C0CA
:1019B0008F2D867809F01F5F0F2DF3FC13C0F0FE0A
:1019C0000EC01E1510F09D2C0AC09D2C9E0C911A65
:1019D0001E2D05C080E290E0B3015FD01F5F1E1591
:1019E000C8F304C01E1510F4E11A01C0EE2404FF70
:1019F0000EC080E390E0B30150D002FF1BC001FD98
:101A000003C088E790E00EC088E590E00BC0802F0F
:101A1000867881F001FF02C08BE201C080E2F7FC12
:101A20008DE290E0B30139D005C080E390E0B301CE
:101A300034D09A94D914C8F3DA94F101ED0DF11D64
:101A4000808190E0B30129D0DD20B1F705C080E2AC
:101A500090E0B30122D0EA94EE20C9F750CEF30112
:101A600066817781CB012B96E2E10C940B5DFC0142
:101A70000590615070400110D8F7809590958E0FB9
:101A80009F1F0895FC016150704001900110D8F72C
:101A9000809590958E0F9F1F08950F931F93CF935E
:101AA000DF938C01EB018B8181FF1BC082FF0DC096
:101AB0002E813F818C819D812817390764F4E8814C
:101AC000F9810193F983E88306C0E885F985802FC1
:101AD0000995892B31F48E819F8101969F838E8396
:101AE00002C00FEF1FEFC801DF91CF911F910F913F
:101AF0000895FA01AA27283051F1203181F1E894A4
:101B00006F936E7F6E5F7F4F8F4F9F4FAF4FB1E0F0
:101B10003ED0B4E03CD0670F781F891F9A1FA11DEB
:101B2000680F791F8A1F911DA11D6A0F711D811DEC
:101B3000911DA11D20D009F468943F912AE0269FB1
:101B400011243019305D3193DEF6CF010895462F10
:101B50004770405D4193B3E00FD0C9F7F6CF462FF1
:101B60004F70405D4A3318F0495D31FD405241935A
:101B700002D0A9F7EACFB4E0A69597958795779517
:101B80006795BA95C9F700976105710508959B019E
:101B9000AC010A2E06945795479537952795BA9527
:101BA000C9F7620F731F841F951FA01D0895DC01E4
:101BB000ED91FC910280F381E02D09950895DF936A
:101BC000CF930F92CDB7DEB7FC016983A081B181BD
:101BD00014962D913C911597BE016F5F7F4F41E0A8
:101BE00050E0F90109950F90CF91DF9108950F937F
:101BF0001F93DF93CF93CDB7DEB7E0970FB6F8947E
:101C0000DEBF0FBECDBFDE011196E4E8F2E080E159
:101C100001900D928150E1F7DE015196E4E7F2E088
:101C200080E101900D928150E1F7DE019196E4E6AA
:101C3000F2E080E101900D928150E1F789819A8173
:101C4000AB81BC818093B8049093B904A093BA048B
:101C5000B093BB0489899A89AB89BC898093A80415
:101C60009093A904A093AA04B093AB0489A19AA16C
:101C7000ABA1BCA18093C8049093C904A093CA04EB
:101C8000B093CB048D819E81AF81B8858093BC04D5
:101C90009093BD04A093BE04B093BF048D899E8928
:101CA000AF89B88D8093AC049093AD04A093AE043B
:101CB000B093AF048DA19EA1AFA1B8A58093CC0431
:101CC0009093CD04A093CE04B093CF0489859A85D8
:101CD000AB85BC858093C0049093C104A093C204DB
:101CE000B093C304898D9A8DAB8DBC8D8093B00465
:101CF0009093B104A093B204B093B30489A59AA5BC
:101D0000ABA5BCA58093D0049093D104A093D2043A
:101D1000B093D3048D859E85AF85B8898093C40424
:101D20009093C504A093C604B093C7048D8D9E8D77
:101D3000AF8DB8A18093B4049093B504A093B6047A
:101D4000B093B7048DA59EA5AFA5B8A98093D40480
:101D50009093D504A093D604B093D70480E090E08C
:101D6000AAEFB4E48093DC049093DD04A093DE0436
:101D7000B093DF0480E090E8ABE3B5E48093E00447
:101D80009093E104A093E204B093E30420E030E0F8
:101D900040E050E02093D8043093D9044093DA0413
:101DA0005093DB0480E29EE4A0E0B0E08093A404C2
:101DB0009093A504A093A604B093A7042093F004E5
:101DC0003093F1044093F2045093F30480E090E0E8
:101DD000A0EAB1E48093E4049093E504A093E604C0
:101DE000B093E7048DEC9CECACECBEE38093E8048C
:101DF0009093E904A093EA04B093EB0480E090E0B0
:101E0000A0EAB0E48093EC049093ED04A093EE0478
:101E1000B093EF04EEE8F1E064918F0107C08DE923
:101E20009AE0CDDE0F5F1F4FF80164916623B9F78A
:101E30008DE99AE060E071E0BADE8DE99AE06AE04F
:101E4000BEDEE0960FB6F894DEBF0FBECDBFCF91D9
:101E5000DF911F910F910895CF93DF930FB6F89400
:101E60008091940A9091950AA091960AB091970A50
:101E70000FBE8093D8029093D902A093DA02B09358
:101E8000DB02E3E8F1E06491EF0106C08DE99AE03E
:101E900096DE2196FE0164916623C1F78DE99AE0F2
:101EA0006AE08DDEDF91CF9108958091CF02089591
:101EB000CF93DF930E94A7498091CF02882309F036
:101EC00031C081E08093CF028091D0029091D10205
:101ED000A091D202B091D3028093D4029093D50204
:101EE000A093D602B093D702E3EEF0E06491EF0145
:101EF00006C08DE99AE063DE2196FE0164916623B7
:101F0000C1F7EAEEF0E06491EF0106C08DE99AE0D6
:101F100056DE2196FE0164916623C1F78DE99AE0B1
:101F20006AE04DDEDF91CF910895CF93DF93E3EE2A
:101F3000F0E06491EF0106C08DE99AE040DE219661
:101F4000FE0164916623C1F7E2E6F1E06491EF01DE
:101F500006C08DE99AE033DE2196FE016491662386
:101F6000C1F78DE99AE06AE02ADE0E94A749779AD4
:101F7000769A479A439AF894DF91CF910895EF9219
:101F8000FF920F931F930FB6F8948091940A90914B
:101F9000950AA091960AB091970A0FBEE090DC02D4
:101FA000F090DD020091DE021091DF022091D80254
:101FB0003091D9024091DA025091DB02821B930BDF
:101FC000A40BB50BE816F9060A071B0730F4E11459
:101FD000F1040105110509F0A8DFE090EE01F09091
:101FE000EF010091F0011091F101E114F1040105FC
:101FF000110531F10FB6F8948091940A9091950AE9
:10200000A091960AB091970A0FBE2091D802309104
:10201000D9024091DA025091DB02821B930BA40B90
:10202000B50BE816F9060A071B0750F49091E5096D
:102030008091E609981721F4779A769A479A439AFD
:102040000E94482D1F910F91FF90EF9008956F927D
:102050007F928F929F92AF92BF92CF92DF92EF9238
:10206000FF920F931F93F82E6091E0027091E102AE
:102070008091E2029091E3022091E4023091E50226
:102080004091E6025091E7020E94C45A3B014C0184
:102090006091EA017091EB0100D000D000D00DB743
:1020A0001EB70F5F1F4F882777FD8095982F0E94DE
:1020B0004B592091F2013091F3014091F40150917C
:1020C000F5010E94895B20E030E040E752E40E9485
:1020D000B05820E030E048EC52E40E94B0585B0178
:1020E0006C01F8016082718282829382F482809115
:1020F000CD02858381EB92E06CEE72E040EE52E01F
:1021000020E001E032E0E32E0E9463268091EC02A1
:102110009091ED02A091EE02B091EF028093B10296
:102120009093B202A093B302B093B4028091F002F4
:102130009091F102A091F202B091F3028093B50266
:102140009093B602A093B702B093B8028091F402C4
:102150009091F502A091F602B091F7028093B90236
:102160009093BA02A093BB02B093BC028091F80294
:102170009091F902A091FA02B091FB028093BD0206
:102180009093BE02A093BF02B093C0020FB6F89422
:102190008091940A9091950AA091960AB091970A1D
:1021A0000FBE8093D8029093D902A093DA02B09325
:1021B000DB028DB79EB706960FB6F8949EBF0FBE92
:1021C0008DBF1F910F91FF90EF90DF90CF90BF9048
:1021D000AF909F908F907F906F9008958F929F9275
:1021E000AF92BF92CF92DF92EF92FF920F931F9325
:1021F0000FB6F8948091940A9091950AA091960A4E
:10220000B091970A0FBE8093D8029093D902A09301
:10221000DA02B093DB026091EA017091EB01BCEE4F
:10222000CB2EB2E0DB2EA8E0AA2EB12CAC0CBD1C4C
:10223000FCE08F2E912C8C0C9D1C882777FD8095BF
:10224000982F0E944B592091F2013091F301409157
:10225000F4015091F5010E94895B20E030E040E7F5
:1022600052E40E94B05820E030E048EC52E40E9472
:10227000B0587B018C01C60124E030E0C20ED31EB1
:10228000B601A5019401EDECCE2EE2E0DE2E0E9417
:1022900089308091EC029091ED02A091EE02B09114
:1022A000EF028093B1029093B202A093B302B09375
:1022B000B4028091F0029091F102A091F202B091EB
:1022C000F3028093B5029093B602A093B702B09345
:1022D000B8028091F4029091F502A091F602B091BB
:1022E000F7028093B9029093BA02A093BB02B09315
:1022F000BC028091F8029091F902A091FA02B0918B
:10230000FB028093BD029093BE02A093BF02B093E4
:10231000C0021F910F91FF90EF90DF90CF90BF9080
:10232000AF909F908F900895CF93DF938DE99AE0BF
:102330000E944D56E6E8F1E06491EF0106C08DE998
:102340009AE03DDC2196FE0164916623C1F740913D
:10235000D0025091D1026091D2027091D3024F5FAE
:102360005F4F6F4F7F4F8DE99AE00E9426558DE9B0
:102370009AE06AE024DC70DDDF91CF91089540910E
:102380000E0350910F0320E630E0B901469F900103
:10239000479F300D569F300D1124682F772767FD1A
:1023A0007095C901805F9C4F4AD99C01909391041C
:1023B0008093900480E0232B09F081E008958091C0
:1023C000900490919104019660E070E04AE050E042
:1023D0000C94D8098091900490919104019660E04A
:1023E00070E00C947B08AF92BF92CF92DF92EF9295
:1023F000FF920F931F93CF93DF9311EBE12E12E027
:10240000F12ECCEED2E000E010E0F801EA5DFD4FE5
:102410008081B5DF882331F1DDDF5B016C01F801DC
:10242000E655FD4F8081882311F061E002C0609184
:10243000FC0270E0882777FD8095982F0E944B5909
:10244000F70120813181428153810E94895B9B0188
:10245000AC01C601B5010E94D057688379838A8395
:102460009B8309C0F70180819181A281B381888318
:102470009983AA83BB830F5F1F4F84E090E0E80E2F
:10248000F91E24960430110509F0BFCF86E477DFEA
:102490008823D9F09FDF7B018C016093FD0270934C
:1024A000FE028093FF029093000320E030E040E0C2
:1024B00050E00E94B75A181644F4E092F201F092EC
:1024C000F3010093F4011093F501DF91CF911F9177
:1024D0000F91FF90EF90DF90CF90BF90AF90089555
:1024E00082DF89E44CDF882351F074DF6093E002DF
:1024F0007093E1028093E2029093E3020CC080E0CB
:1025000090E0A0E0B0E08093E0029093E102A0931D
:10251000E202B093E3028AE432DF882351F05ADF0B
:102520006093E4027093E5028093E6029093E702E1
:10253000089580E090E0A0E0B0E08093E402909302
:10254000E502A093E602B093E70208952F923F922E
:102550004F925F926F927F928F929F92AF92BF92B3
:10256000CF92DF92EF92FF920F931F93DF93CF935F
:10257000CDB7DEB7A1970FB6F894DEBF0FBECDBFC3
:1025800087E4FDDE882309F4BEC424DF0E941859C5
:102590006430710509F43CC06530710554F4623053
:1025A000710531F16330710554F57723CCF40C9447
:1025B00083226A35710509F455C46B35710534F40D
:1025C0006C31710511F00C94832279C06B35710563
:1025D00009F44CC46C35710511F00C9483224BC482
:1025E0008091CF02882321F4FEDEF8DD0C94B62220
:1025F0008091CF02882319F473DF81E006C08091B7
:10260000CF02882329F46CDF80E021DD0C94B62210
:1026100080E5B5DE882321F4EE24FF24870105C080
:10262000D9DE0E941D597B018C0183E5A8DE882339
:1026300059F0D0DE20E030E04AE754E40E94895BA4
:102640000E941D597B018C010E94493D0FB6F894F0
:10265000A090940AB090950AC090960AD090970ADC
:102660000FBEAE0CBF1CC01ED11E0FB6F8948091D9
:10267000940A9091950AA091960AB091970A0FBE7C
:102680008093D8029093D902A093DA02B093DB0230
:1026900004C00E94294781E072DC0FB6F894809153
:1026A000940A9091950AA091960AB091970A0FBE4C
:1026B0008A159B05AC05BD0560F30C9483228091BF
:1026C000F2019091F301A091F401B091F501809392
:1026D000010390930203A0930303B093040380913A
:1026E000EA019091EB019093AF028093AE0284E6F1
:1026F00090E09093EB018093EA010FB6F8948091FB
:10270000940A9091950AA091960AB091970A0FBEEB
:102710008093D8029093D902A093DA02B093DB029F
:1027200081E00E949B3C8091B1029091B202A09105
:10273000B302B091B4028093EC029093ED02A093A7
:10274000EE02B093EF028091B5029091B602A09193
:10275000B702B091B8028093F0029093F102A09377
:10276000F202B093F3028091B9029091BA02A09163
:10277000BB02B091BC028093F4029093F502A09347
:10278000F602B093F7028091BD029091BE02A09133
:10279000BF02B091C0028093F8029093F902A09317
:1027A000FA02B093FB0280E090E0A0E0B0E08093FA
:1027B000F2019093F301A093F401B093F50188E541
:1027C000DEDD882351F489E5DADD882331F48AE5FA
:1027D000D6DD882311F481E001C080E08093F6010A
:1027E000882329F488E5CBDD882309F4DEC00F2E89
:1027F000F0E08F2EF0E09F2EF0E0AF2EF0E0BF2E45
:10280000F02D8092B1029092B202A092B302B092E7
:10281000B40281EB92E065EB72E049EB52E02DEB04
:1028200032E00E94FC2980E090E8ADE9B3EC8093AF
:10283000EC029093ED02A093EE02B093EF02609150
:10284000DA017091DB018091DC019091DD016093F0
:10285000F2017093F3018093F4019093F50120E06D
:1028600030E040E752E40E94B0587B018C018CEECE
:1028700092E060EF72E044EF52E028EF32E0ADEC1E
:10288000CA2EA2E0DA2E0E9489300E94493D809231
:10289000B1029092B202A092B302B092B40281EB64
:1028A00092E065EB72E049EB52E02DEB32E00E94E2
:1028B000FC2980E090E0A0EAB0E48093EC029093E1
:1028C000ED02A093EE02B093EF026091F2017091DD
:1028D000F3018091F4019091F50120E030E040E7B0
:1028E00052E40E94B0587B018C018CEE92E060EFC4
:1028F00072E044EF52E028EF32E00E9489300E94FB
:10290000493D80E090E0A0E2B1EC8093EC0290932E
:10291000ED02A093EE02B093EF026091DA017091A4
:10292000DB018091DC019091DD0120E030E040E0AE
:102930005FE30E94895B6093F2017093F3018093DF
:10294000F4019093F50120E030E040E752E40E946A
:10295000B0587B018C018CEE92E060EF72E044EFA6
:1029600052E028EF32E00E9489300E94493D80E029
:1029700090E0A0EAB0EC8093B1029093B202A093F1
:10298000B302B093B4028093EC029093ED02A09353
:10299000EE02B093EF028092F2019092F301A092C6
:1029A000F401B092F5010E94943C8091F6018823D5
:1029B00029F489E5E4DC882309F4DEC00F2EF0E079
:1029C0008F2EF0E09F2EF0E0AF2EF0E0BF2EF02D26
:1029D0008092B5029092B602A092B702B092B8026D
:1029E00081EB92E065EB72E049EB52E02DEB32E0D7
:1029F0000E94FC2980E090E8ADE9B3EC8093F002FE
:102A00009093F102A093F202B093F3026091DE0181
:102A10007091DF018091E0019091E1016093F201FA
:102A20007093F3018093F4019093F50120E030E07E
:102A300040E752E40E94B0587B018C018CEE92E09A
:102A400060EF72E044EF52E028EF32E0FDECCF2E71
:102A5000F2E0DF2E0E9489300E94493D8092B5024B
:102A60009092B602A092B702B092B80281EB92E0C7
:102A700065EB72E049EB52E02DEB32E00E94FC295D
:102A800080E090E0A0EAB0E48093F0029093F1023D
:102A9000A093F202B093F3026091F2017091F301FE
:102AA0008091F4019091F50120E030E040E752E49C
:102AB0000E94B0587B018C018CEE92E060EF72E0D6
:102AC00044EF52E028EF32E00E9489300E94493DF5
:102AD00080E090E0A0E2B1EC8093F0029093F102EC
:102AE000A093F202B093F3026091DE017091DF01D6
:102AF0008091E0019091E10120E030E040E05FE36F
:102B00000E94895B6093F2017093F3018093F4015A
:102B10009093F50120E030E040E752E40E94B05885
:102B20007B018C018CEE92E060EF72E044EF52E0AA
:102B300028EF32E00E9489300E94493D80E090E019
:102B4000A0EFB1E48093B5029093B602A093B702D0
:102B5000B093B8028093F0029093F102A093F20236
:102B6000B093F3028092F2019092F301A092F401EB
:102B7000B092F5010E94943C8091F601882329F4DB
:102B80008AE5FDDB882309F4DAC00F2EF0E08F2EF2
:102B9000F0E09F2EF0E0AF2EF0E0BF2EF02D8092FF
:102BA000B9029092BA02A092BB02B092BC0281EB31
:102BB00092E065EB72E049EB52E02DEB32E00E94CF
:102BC000FC2980E090E0A1E6B3EC8093F4029093BE
:102BD000F502A093F602B093F7026091E2017091C2
:102BE000E3018091E4019091E5016093F20170931B
:102BF000F3018093F4019093F50120E030E040E789
:102C000052E40E94B0587B018C018CEE92E060EFA0
:102C100072E044EF52E028EF32E0EDECCE2EE2E03D
:102C2000DE2E0E9489300E94493D8092B902909226
:102C3000BA02A092BB02B092BC0281EB92E065EBBB
:102C400072E049EB52E02DEB32E00E94FC2980E07B
:102C500090E0A0E4B0E48093F4029093F502A09396
:102C6000F602B093F7026091F2017091F301809146
:102C7000F4019091F50120E030E040E752E40E9439
:102C8000B0587B018C018CEE92E060EF72E044EF73
:102C900052E028EF32E00E9489300E94493D80E0F6
:102CA00090E0A0ECB0EC8093F4029093F502A09336
:102CB000F602B093F7026091E2017091E301809116
:102CC000E4019091E50120E030E040E05FE30E9404
:102CD000895B6093F2017093F3018093F401909308
:102CE000F50120E030E040E752E40E94B0587B015B
:102CF0008C018CEE92E060EF72E044EF52E028EF3E
:102D000032E00E9489300E94493D8092B90290923F
:102D1000BA02A092BB02B092BC028092F4029092DE
:102D2000F502A092F602B092F7028092F201909220
:102D3000F301A092F401B092F5010E94943C88E561
:102D40001EDB8823C9F03BDB611571058105910508
:102D500099F040DB2091C1023091C2024091C30240
:102D60005091C4020E94D0576093B1027093B20296
:102D70008093B3029093B40289E501DB8823C9F004
:102D80001EDB611571058105910599F023DB20910A
:102D9000C5023091C6024091C7025091C8020E94FC
:102DA000D0576093B5027093B6028093B7029093A8
:102DB000B8028AE5E4DA8823C9F001DB6115710500
:102DC0008105910599F006DB2091C9023091CA0274
:102DD0004091CB025091CC020E94D0576093B9022F
:102DE0007093BA028093BB029093BC0281EB92E095
:102DF00065EB72E049EB52E02DEB32E00E94FC29DA
:102E000080E00E949B3C8091010390910203A0917D
:102E10000303B09104038093F2019093F301A09314
:102E2000F401B093F5018091AE029091AF029093BE
:102E3000EB018093EA010FB6F8948091940A909187
:102E4000950AA091960AB091970A0FBE8093D80276
:102E50009093D902A093DA02B093DB020E94943CD3
:102E60000C9483221092FC020C94832281E08093C4
:102E7000FC020C94832285E482DA882311F40E94F8
:102E8000493D71EBE72E72E0F72E61ECC62E62E051
:102E9000D62E00E010E0F801EA5DFD4F80816FDA88
:102EA000882321F1033059F495DAF70160837183A7
:102EB000828393838DEB92E00E94DF2917C08ADA28
:102EC000F60120813181428153810E94D057F70160
:102ED000608371838283938381EB92E065EB72E080
:102EE00049EB52E02DEB32E00E94FC290F5F1F4FAF
:102EF00084E090E0E80EF91EC80ED91E04301105DA
:102F000051F60C9483228DE43ADA882311F40C9460
:102F1000E72160DA0E9418596837710511F40C94A2
:102F2000931F693771050CF05FC06C35710509F4AA
:102F300050C66D35710564F56A32710509F48CC1AE
:102F40006B32710574F46231710509F4E3C56F31B8
:102F5000710509F4C2C06131710511F00C9483222E
:102F6000B6C06335710509F4D1C56435710534F413
:102F70006235710511F00C948322C5C56435710565
:102F800009F4C8C56535710511F00C9483220BC690
:102F90006B36710509F4B4C56C36710574F4693685
:102FA000710509F4F7C16A3671050CF081C5683600
:102FB000710511F00C94832291C16237710509F4F7
:102FC000D9C66337710534F46D36710511F00C9470
:102FD0008322AAC26337710509F480C66737710579
:102FE00011F00C948322A5C76C3D710511F40C946B
:102FF000DC206D3D710584F5693C710509F4E8C775
:103000006A3C710574F46C38710509F4B0C16E3B0B
:10301000710509F493C46937710511F00C9483228A
:1030200084C76C3C710511F40C9440206D3C710513
:103030003CF46B3C710511F00C9483220C9422201B
:103040006D3C710511F40C9460206E3C710511F01B
:103050000C9483220C94BE2091E06F32790711F416
:103060000C94BA21E1E060337E079CF4F1E06D320C
:103070007F0711F40C94FD2021E06E32720714F0EA
:103080000C94B6216D3D710511F00C9483220C94C3
:10309000EE2081E0653F780711F40C94CC2191E09B
:1030A000663F79073CF46059714011F00C9483221B
:1030B0000C94C921F1E0663F7F0711F40C94CE21F6
:1030C000675E734011F00C9483220C94D2217798A0
:1030D0007698479843980C9483220FB6F8946091A1
:1030E000940A7091950A8091960A9091970A0FBE62
:1030F000609305037093060380930703909308037E
:103100002091090330910A0340910B0350910C0365
:10311000621B730B840B950B28EE33E040E050E00C
:103120000E948D5CF22EE32ED42EC52E8DB79EB755
:1031300008970FB6F8949EBF0FBE8DBF0DB71EB790
:103140000F5F1F4FCE010196EDB7FEB792838183CB
:1031500088E191E0F80193838283622F732F842F9B
:10316000952F2CE330E040E050E00E948D5CF801A8
:10317000358324836F2D7E2D8D2D9C2D2CE330E007
:1031800040E050E00E948D5CF801778366830E94E6
:10319000440BEEE8F1E064918F018DB79EB708967D
:1031A0000FB6F8949EBF0FBE8DBF08C08DE99AE0A0
:1031B0000E94DF0D0F5F1F4FF80164916623B1F786
:1031C0008DE99AE0BE016F5F7F4F0E94D70D8DE9B8
:1031D0009AE06AE00E94DF0D80911405882311F4C3
:1031E0000C948322109214056091CD02E62FF0E03A
:1031F000EE0FFF1FEA5BF54F808191810E9405462B
:103200002091FB013091FC014091FD015091FE01A4
:103210000E94B75A181614F00C9483226091CD02C4
:10322000062F10E080E090E00E94DF48000F111FA1
:10323000F801EA5BF54F91838083000F111F025B59
:10324000154F80E090E0A0E0B0E0F801808391832A
:10325000A283B3830C94832283E591D8882311F44D
:103260000C948322B7D87B018C0180E588D8882311
:1032700011F40C948322C801B7010E9418596B0104
:1032800077FF02C00C9483226F3F710519F014F090
:103290000C9483229FD80E9418597B01EAE2F2E045
:1032A000808191818E159F0511F40C9483223296B2
:1032B00022E0EE39F207A1F7F7FE02C00C94832258
:1032C0008E2D0E94F44FEE2DF0E00C2C0E94055044
:1032D0008E2DB6010E94AF510C9483228091CD02B5
:1032E00080930D0384E54BD88823D9F073D80E94CE
:1032F0001D5960930D036623A1F0EEE8F1E064919F
:103300008F0108C08DE99AE00E94DF0D0F5F1F4F0B
:10331000F80164916623B1F78DE99AE067E271E004
:1033200027C183E52CD88823F1F054D86B017C01A8
:10333000B0900D030B2D10E00E941859DC01CB0159
:103340006B2D0E94DF48000F111FF801EA5BF54F5B
:1033500091838083000F111F025B154FF801C0821B
:10336000D182E282F3820E94D9450C94832283E5C4
:1033700006D8882311F40C9483222CD80E94185963
:10338000DC01CB010E94C5449093490A8093480A0E
:103390000C9483228091CD0280930D0384E50E94DA
:1033A000BF118823D9F016D80E941D5960930D03D0
:1033B0006623A1F0EEE8F1E064918F0108C08DE989
:1033C0009AE00E94DF0D0F5F1F4FF80164916623A2
:1033D000B1F78DE99AE06EE371E0CAC0EBE7F2E085
:1033E00064918F0108C08DE99AE00E94DF0D0F5FA4
:1033F0001F4FF80164916623B1F760910D03E62F2A
:10340000F0E0EE0FFF1FE65BF54F808191810E9497
:103410000546AB01BC018DE99AE021E00E943755D9
:10342000E8E7F2E064918F0108C08DE99AE00E941C
:10343000DF0D0F5F1F4FF80164916623B1F76091B4
:103440000D03E62FF0E0EE0FFF1FEA5BF54F8081E2
:1034500091810E940546AB01BC018DE99AE021E013
:103460000E943755E4E7F2E064918F0108C08DE9CE
:103470009AE00E94DF0D0F5F1F4FF80164916623F1
:10348000B1F780914C0A90914D0A0E942645AB01FC
:10349000BC018DE99AE021E00E943755E1E7F2E0B6
:1034A00064918F0108C08DE99AE00E94DF0D0F5FE3
:1034B0001F4FF80164916623B1F78091480A9091FB
:1034C000490A0E942645AB01BC018DE99AE021E042
:1034D0000E943755EDE6F2E064918F0108C08DE956
:1034E0009AE00E94DF0D0F5F1F4FF8016491662381
:1034F000B1F780910D0390E00E94BF44AC016627B4
:1035000057FD6095762F8DE99AE00E9426558DE94A
:103510009AE065E571E00E94D70D8DE99AE06AE0D6
:103520000E94DF0D0C94B6228091CD0280930D0392
:1035300084E50E94BF11882351F10E94EA110E9484
:103540001D5960930D03662311F1EEE8F1E06491DB
:103550008F0108C08DE99AE00E94DF0D0F5F1F4FB9
:10356000F80164916623B1F78DE99AE066E571E0B0
:103570000E94D70DE0919D0AF0919E0A0190F08182
:10358000E02D8DE99AE060910D030995B7C710927F
:10359000140583E50E94BF118823F9F00E94EA1107
:1035A0006B017C01B0900D030B2D10E00E941859A7
:1035B000DC01CB016B2D0E94DF48000F111FF801C9
:1035C000EA5BF54F91838083000F111F025B154F5B
:1035D000F801C082D182E282F38283E50E94BF11AA
:1035E000882351F00E94EA116093FB017093FC0163
:1035F0008093FD019093FE0182E40E94BF11882315
:1036000051F00E94EA116093F7017093F8018093E2
:10361000F9019093FA0186E40E94BF11882369F0B2
:103620000E94EA116093FF017093000280930102EF
:103630009093020281E0809314050E94D9450FB651
:10364000F8946090940A7090950A8090960A9090F1
:10365000970A0FBEE0910D03F0E0EE0FFF1FDF01B0
:10366000AA5BB54F2D903C90E65BF54F40805180B2
:10367000AA24AA94BA2C6501EAE6F2E024912F8FDD
:10368000E6E6F2E0849188A3E2E6F2E0949199A361
:103690003FC16F8D0AE612E008C08DE99AE00E94F2
:1036A000DF0D0F5F1F4FF80164916623B1F7609142
:1036B0000D03E62FF0E0EE0FFF1FE65BF54F808174
:1036C00091810E940546AB01BC018DE99AE021E0A1
:1036D0000E94375568A106E612E008C08DE99AE01D
:1036E0000E94DF0D0F5F1F4FF80164916623B1F751
:1036F00040910D0350E0662757FD6095762F8DE9C8
:103700009AE00E94265569A102E612E008C08DE900
:103710009AE00E94DF0D0F5F1F4FF801649166234E
:10372000B1F7D7FC24C00FB6F8942091940A3091D9
:10373000950A4091960A5091970A0FBEC601B501AD
:1037400068577C4E8F4F9F4F621B730B840B950BFA
:1037500028EE33E040E050E00E948D5C8DE99AE075
:10376000BA01A9012AE000E00E949B5406C08DE93D
:103770009AE06DE671E00E94D70D8DE99AE06AE06B
:103780000E94DF0D0FB6F8946090940A7090950A2D
:103790008090960A9090970A0FBE0E94294781E078
:1037A0000E94BF0FFFEFAF16FFEFBF06FFEFCF0680
:1037B000FFEFDF0609F053C060910D03421453047C
:1037C0003CF5E62FF0E0EE0FFF1FE65BF54F808142
:1037D00091810E9405467B018C0160910D03E62FCB
:1037E000F0E0EE0FFF1FEA5BF54F808191810E94B0
:1037F000054620E030E040E85FE30E94CF579B01A0
:10380000AC01C801B7010E94B75A87FF5AC064C013
:10381000E62FF0E0EE0FFF1FE65BF54F8081918110
:103820000E9405467B018C0160910D03E62FF0E0BC
:10383000EE0FFF1FEA5BF54F808191810E940546E4
:1038400020E030E040E85FE30E94D0579B01AC01EC
:10385000C801B7010E94A95818169CF53DC0D7FCB5
:103860003BC060910D03E62FF0E0EE0FFF1FE65B1B
:10387000F54F808191810E9405467B018C0160910A
:103880000D03E62FF0E0EE0FFF1FEA5BF54F80819E
:1038900091810E9405469B01AC01C801B7010E94BD
:1038A000CF570E94185997FF07C090958095709543
:1038B00061957F4F8F4F9F4F6B307105810591054B
:1038C0005CF00FB6F894A090940AB090950AC0905E
:1038D000960AD090970A0FBE2FEFA2162FEFB206CE
:1038E0002FEFC2062FEFD20699F0D7FC0FC60FB606
:1038F000F8948091940A9091950AA091960AB091BB
:10390000970A0FBE8A199B098858934108F0FEC593
:103910000FB6F8948091940A9091950AA091960A16
:10392000B091970A0FBE86199709A809B909895E4F
:103930009340A040B04008F0ACCE2FCF83E50E946A
:10394000BF11882361F00E94EA110E941859DC011E
:10395000CB010E94C5449093490A8093480A0FB650
:10396000F894E090940AF090950A0091960A1091CC
:10397000970A0FBEEFE5F2E09490EBE5F2E0A49039
:10398000E7E5F2E0B49087C00FB6F8948091940A0E
:103990009091950AA091960AB091970A0FBE8E1940
:1039A0009F09A00BB10B895E9340A040B04008F482
:1039B0006DC06091CD02E62FF0E0EE0FFF1FE65BD9
:1039C000F54F808191810E9405466B017C01692D34
:1039D0000FE512E008C08DE99AE00E94DF0D0F5F4D
:1039E0001F4FF80164916623B1F78DE99AE0B701A2
:1039F000A60122E00E9437556A2D0BE512E008C0AF
:103A00008DE99AE00E94DF0D0F5F1F4FF80164916E
:103A10006623B1F74091CD0250E0662757FD6095CF
:103A2000762F8DE99AE00E9426556B2D07E512E06E
:103A300008C08DE99AE00E94DF0D0F5F1F4FF8016B
:103A400064916623B1F780914C0A90914D0A0E94CF
:103A50002645AB01BC018DE99AE021E00E94375573
:103A60008DE99AE065E571E00E94D70D8DE99AE055
:103A70006AE00E94DF0D0FB6F894E090940AF0908F
:103A8000950A0091960A1091970A0FBE0E94294745
:103A900081E00E94BF0F2091480A3091490A80912D
:103AA0004C0A90914D0A821793070CF46DCF41C5D3
:103AB00083E50E94BF118823F9F00E94EA1120E0FB
:103AC00030E040E050E00E94A958882314F460E000
:103AD00010C00E94EA1120E030E04FE753E40E945A
:103AE000B75A181614F46FEF04C00E94EA110E942E
:103AF0001D596093CE0207C58FEF8093CE0203C598
:103B00001092CE0200C51092AD02FDC481E08093F8
:103B1000AD02F9C483E50E94BF11882399F00E9489
:103B2000EA1120E030E04AE754E40E94895B0E94F9
:103B30001D596093EE017093EF018093F001909313
:103B4000F101E1C488E50E94BF11882309F005C591
:103B500089E50E94BF11882309F0FFC48AE50E940D
:103B6000BF11882309F0F9C485E40E94BF1188239E
:103B700009F0F3C40E94493D439A0E94563DC3C4D4
:103B8000779A89E50E94BF118111769A8AE50E9491
:103B9000BF118111479A85E40E94BF11882309F45F
:103BA000B2C4439AB0C483E50E94BF110E94EA11D7
:103BB00020E030E04AE754E40E94895B0E941D59EE
:103BC0006093DC027093DD028093DE029093DF024B
:103BD0009AC458EB652E54E0752E48EA242E44E032
:103BE000342E34EF432E34E0532E88249924F401EC
:103BF000EA5DFD4F80810E94BF11882309F45DC0FA
:103C0000F3E08F1609F052C00E94EA115B016C01CB
:103C100020E030E040EA51E40E94A95888230CF0EB
:103C20003FC0F3016081718182819381A60195017A
:103C30000E94B0587B018C016091EC047091ED04FE
:103C40008091EE049091EF04A80197010E94895B96
:103C50006093EC047093ED048093EE049093EF0472
:103C6000F1016081718182819381A80197010E9495
:103C7000895BF1016083718382839383F2016081A8
:103C80007181828193810E944959A80197010E9404
:103C9000895B0E941D59F201608371838283938343
:103CA000F301A082B182C282D38207C00E94EA11CE
:103CB000F30160837183828393830894811C911C38
:103CC00084E090E0680E791E280E391E480E591EB9
:103CD00094E08916910409F08ACF15C4E3E0F2E07C
:103CE00064918F0108C08DE99AE00E94DF0D0F5F9B
:103CF0001F4FF80164916623B1F7EBEFF1E0649197
:103D00008F0108C08DE99AE00E94DF0D0F5F1F4F01
:103D1000F80164916623B1F7E1EFF1E064918F015E
:103D200008C08DE99AE00E94DF0D0F5F1F4FF80178
:103D300064916623B1F7E6EEF1E064918F0108C06B
:103D40008DE99AE00E94DF0D0F5F1F4FF80164912B
:103D50006623B1F7E9EDF1E064918F0108C08DE9C8
:103D60009AE00E94DF0D0F5F1F4FF80164916623F8
:103D7000B1F7C4C3E6EDF1E064918F0108C08DE9AD
:103D80009AE00E94DF0D0F5F1F4FF80164916623D8
:103D9000B1F74091B1025091B2026091B3027091BB
:103DA000B4028DE99AE022E00E943755E3EDF1E09C
:103DB00064918F0108C08DE99AE00E94DF0D0F5FCA
:103DC0001F4FF80164916623B1F74091B5025091FD
:103DD000B6026091B7027091B8028DE99AE022E0D4
:103DE0000E943755E0EDF1E064918F0108C08DE944
:103DF0009AE00E94DF0D0F5F1F4FF8016491662368
:103E0000B1F74091B9025091BA026091BB02709132
:103E1000BC028DE99AE022E00E943755EDECF1E01A
:103E200064918F0108C08DE99AE00E94DF0D0F5F59
:103E30001F4FF80164916623B1F74091BD02509184
:103E4000BE026091BF027091C0028DE99AE022E04B
:103E50000E943755E3ECF1E064918F0108C08DE9D1
:103E60009AE00E94DF0D0F5F1F4FF80164916623F7
:103E7000B1F780E00E94373D0E944B592091B80471
:103E80003091B9044091BA045091BB040E94B058DB
:103E9000AB01BC018DE99AE022E00E943755E0ECCD
:103EA000F1E064918F0108C08DE99AE00E94DF0D76
:103EB0000F5F1F4FF80164916623B1F781E00E9404
:103EC000373D0E944B592091BC043091BD04409174
:103ED000BE045091BF040E94B058AB01BC018DE9F3
:103EE0009AE022E00E943755EDEBF1E064918F01FA
:103EF00008C08DE99AE00E94DF0D0F5F1F4FF801A7
:103F000064916623B1F782E00E94373D0E944B59CD
:103F10002091C0043091C1044091C2045091C30467
:103F20000E94B05817C280E001C081E00E949B3C13
:103F3000EAC2E6EBF1E064918F0108C08DE99AE0F6
:103F40000E94DF0D0F5F1F4FF80164916623B1F7E8
:103F5000639B03C06FE671E002C062E771E08DE928
:103F60009AE00E94D70DEFEAF1E064918F0108C05A
:103F70008DE99AE00E94DF0D0F5F1F4FF8016491F9
:103F80006623B1F7659B03C06FE671E002C062E78C
:103F900071E08DE99AE00E94D70DE8EAF1E06491C2
:103FA0008F0108C08DE99AE00E94DF0D0F5F1F4F5F
:103FB000F80164916623B1F7649B03C06FE671E07A
:103FC00002C062E771E08DE99AE00E94D70DC9C195
:103FD00026E2C22E22E0D22EEE24FF24F6018081BA
:103FE0000E94BF11882309F10E94EA11870108533A
:103FF0001B4F0E941D59F801608371838283938354
:104000000E94EA1187010C501B4FF701E854FB4F47
:1040100020813181428153810E94895B0E941D5918
:10402000F80160837183828393830894C11CD11C3F
:1040300084E090E0E80EF91E9AE2C91692E0D906F3
:1040400069F661C206E212E098EAE92E94E0F92EE0
:10405000F80180810E94BF11882339F00E94EA1183
:10406000F70160837183828393830F5F1F4F84E026
:1040700090E0E80EF91E92E00A32190749F743C2B0
:1040800083E50E94BF11882351F00E94EA116093DA
:10409000DC047093DD048093DE049093DF0484E5F8
:1040A0000E94BF11882309F42EC20E94EA11609376
:1040B000E0047093E1048093E2049093E30423C24C
:1040C00083E50E94BF11882351F00E94EA1160939A
:1040D000D8047093D9048093DA049093DB0484E5C8
:1040E0000E94BF11882351F00E94EA116093F004EE
:1040F0007093F1048093F2049093F30482E40E949D
:10410000BF11882361F00E94EA110E941D5960933B
:10411000A4047093A5048093A6049093A70488E553
:104120000E94BF11882351F00E94EA116093E404B9
:104130007093E5048093E6049093E7048AE50E9477
:10414000BF11882351F00E94EA116093E804709334
:10415000E9048093EA049093EB0485E40E94BF1184
:10416000882309F4D0C10E94EA116093EC04709393
:10417000ED048093EE049093EF04C5C106E212E0D3
:1041800081ECE82E82E0F82EF80180810E94BF11B8
:10419000882339F00E94EA11F701608371838283DA
:1041A00093830F5F1F4F84E090E0E80EF91E92E0CA
:1041B0000932190749F7A7C183E50E94BF11882377
:1041C00009F4A1C10E94EA110E9418597093EB01F1
:1041D0006093EA0181E08093B00295C183E50E947B
:1041E000BF11882309F48FC10E94EA110E94185957
:1041F0007093ED016093EC0186C180E50E94BF11D0
:10420000882351F00E94EA1160930802709309021A
:1042100080930A0290930B0289E40E94BF118823C5
:1042200081F00E94EA112DEB37E346E05EE30E9445
:10423000895B60930C0270930D0280930E02909341
:104240000F0284E40E94BF11882381F00E94EA11CA
:104250002DEB37E346E05EE30E94B0586093100216
:1042600070931102809312029093130283E40E94D0
:10427000BF11882351F00E94EA11609314027093D9
:10428000150280931602909317020E94A8448DE9AC
:104290009AE065E771E00E94D70D8DE99AE068E742
:1042A00071E00E94D70D409108025091090260917F
:1042B0000A0270910B028DE99AE022E00E943755C4
:1042C0008DE99AE06CE771E00E94D70D60910C02D5
:1042D00070910D0280910E0290910F022DEB37E349
:1042E00046E05EE30E94B058AB01BC018DE99AE064
:1042F00022E00E9437558DE99AE060E871E00E9463
:10430000D70D60911002709111028091120290916C
:1043100013022DEB37E346E05EE30E94895BAB01BD
:10432000BC018DE99AE022E00E9437558DE99AE0C0
:1043300064E871E00E94D70D60911402709115023B
:1043400080911602909117022DEB37E346E05EE371
:104350000E94895BAB01BC018DE99AE022E00E94DA
:1043600037558DE99AE065E571E064C081E00E940F
:10437000DC29C9C083E50E94BF11882329F460E0CD
:1043800070E086E193E402C00E94EA110E94C54BEE
:10439000BAC00E94493DB7C080E001C081E00E94E0
:1043A000F70DB1C01092CF028091D4029091D50246
:1043B000A091D602B091D7028093D0029093D102FF
:1043C000A093D202B093D3020E9494119CC084E5C2
:1043D0000E94BF11882309F451C00E94EA110E9473
:1043E0001D5960930D03EEE8F1E0662331F164910D
:1043F0008F0108C08DE99AE00E94DF0D0F5F1F4F0B
:10440000F80164916623B1F78DE99AE068E871E0FC
:104410000E94D70DE0919D0AF0919E0A0190F081D3
:10442000E02D8DE99AE060910D0309958DE99AE000
:104430006AE871E00E94D70D61C01092CD026491CC
:104440008F0108C08DE99AE00E94DF0D0F5F1F4FBA
:10445000F80164916623B1F78DE99AE06BE971E0A8
:104460000E94D70D4091CD0250E0662757FD609520
:10447000762F8DE99AE00E94265540C0EEE8F1E0E3
:1044800064918F0108C08DE99AE00E94DF0D0F5FF3
:104490001F4FF80164916623B1F7E6E9F1E06491FA
:1044A0008F0108C08DE99AE00E94DF0D0F5F1F4F5A
:1044B000F80164916623B1F720910E0330910F0348
:1044C00080E690E0289FB001299F700D389F700D05
:1044D0001124605F7C4F8DE99AE00E94D70DE4E9DA
:1044E000F1E064918F0108C08DE99AE00E94DF0D30
:1044F0000F5F1F4FF80164916623B1F78DE99AE0D1
:104500006AE00E94DF0D0E942C0F30C00FB6F894B5
:104510008091940A9091950AA091960AB091970A79
:104520000FBE8093090390930A03A0930B03B093EB
:104530000C030FB6F8948091940A9091950AA0917B
:10454000960AB091970A0FBE8093D8029093D90231
:10455000A093DA02B093DB02D6CF0E94493D88E5F2
:104560000E94BF11882309F00BCB0BCBA1960FB68D
:10457000F894DEBF0FBECDBFCF91DF911F910F9199
:10458000FF90EF90DF90CF90BF90AF909F908F9073
:104590007F906F905F904F903F902F900895BF92C3
:1045A000CF92DF92EF92FF920F931F93CF93DF93FF
:1045B000B0E6EB2EF12CE1E8F2E0C490E9EFF2E096
:1045C000D490BB24B394F9C12D3071F02A3321F477
:1045D00080919304882341F08091940490919504F4
:1045E0008F3591050CF4C5C1E0919404F0919504C8
:1045F000309719F410929304F8C1A0919604B091E9
:104600009704AE9D8001AF9D100DBE9D100D11242D
:10461000E00FF11FE05FFC4F10828091930488232C
:1046200009F0A2C110929304A856BB4F1C92E80156
:10463000C05FDC4FCE016EE470E00E941F0B9C0156
:10464000009709F4F1C090939104809390042F5F38
:104650003F4F2C1B3D0B200F311FC901805F9C4F2A
:1046600060E070E04AE050E00E94D80960939C044A
:1046700070939D0480939E0490939F042091D00298
:104680003091D1024091D2025091D3022F5F3F4F1F
:104690004F4F5F4F621773078407950789F1809129
:1046A0009604909197049C012E9DC0012F9D900D22
:1046B0003E9D900D1124805F9C4F6DEA71E00E9439
:1046C0002A0B0097E9F4E3EEF0E06491EF0107C0F4
:1046D0008DE99AE00E94DF0D2196FE016491662328
:1046E000B9F7ECE6F3E06491EF0107C08DE99AE0D9
:1046F0000E94DF0D2196FE0164916623B9F76FC019
:1047000080919604909197048E9DE0018F9DD00D2D
:104710009E9DD00D1124CE01805F9C4F6AE270E017
:104720000E941F0B9C01009709F43DC010E040E07F
:10473000CE0102C01E274F5FFC01E40FF11DE05FB8
:10474000FC4FE081EA32B1F730939104209390045A
:10475000C901019660E070E00E947B080E94185930
:10476000212F30E02617370709F44DC0E3EEF0E0C3
:104770006491EF0107C08DE99AE00E94DF0D219658
:10478000FE0164916623B9F7EEE4F3E06491EF0172
:1047900007C08DE99AE00E94DF0D2196FE01649129
:1047A0006623B9F71CC0E3EEF0E06491EF0107C0A7
:1047B0008DE99AE00E94DF0D2196FE016491662347
:1047C000B9F7E5E2F3E06491EF0107C08DE99AE003
:1047D0000E94DF0D2196FE0164916623B9F7409196
:1047E000D0025091D1026091D2027091D3028DE932
:1047F0009AE00E9426558DE99AE06AE00E94DF0D5A
:104800000E94941145C080919C0490919D04A091B8
:104810009E04B0919F048093D0029093D102A09304
:10482000D202B093D30239C0CE016AE270E00E9496
:104830001F0B009791F1E3EEF0E06491EF0107C0E8
:104840008DE99AE00E94DF0D2196FE0164916623B6
:10485000B9F7ECEFF2E06491EF0107C08DE99AE05F
:104860000E94DF0D2196FE0164916623B9F7409105
:10487000D0025091D1026091D2027091D3028DE9A1
:104880009AE00E9426558DE99AE06AE00E94DF0DC9
:104890001092950410929404A8C08091960490916F
:1048A00097048E9D80018F9D100D9E9D100D1124EB
:1048B000E801C05FDC4FCE0167E470E00E941F0B8F
:1048C0009C01009709F43AC090939104809390045E
:1048D0002F5F3F4F2C1B3D0B200F311FC901805F05
:1048E0009C4F60E070E00E947B080E941859643081
:1048F000710520F58091CF02882371F46D2DC9EFE9
:10490000D2E007C08DE99AE00E94DF0D2196FE01FA
:1049100064916623B9F70DC06C2DC1E8D2E007C0E1
:104920008DE99AE00E94DF0D2196FE0164916623D5
:10493000B9F78DE99AE06AE00E94DF0D8091960454
:1049400090919704019664E070E00E947A5C9093E5
:104950009704809396048091A0049091A1040196FD
:104960009093A1048093A004109295041092940453
:1049700024C02B3311F4B0929304809193048823C4
:10498000E1F42091940430919504809196049091E3
:1049900097048E9DF0018F9DF00D9E9DF00D1124CA
:1049A000E20FF31FE05FFC4F8091920480832F5F42
:1049B0003F4F30939504209394048DE99AE00E9430
:1049C000E555181619068CF48091A0049091A10465
:1049D00004975CF48DE99AE00E941E56282F80937C
:1049E00092048A3009F0F0CDFFCDDF91CF911F9175
:1049F0000F91FF90EF90DF90CF90BF900895EF92CE
:104A0000FF920F931F93DF93CF9300D0CDB7DEB704
:104A10008DE99AE00E944957882319F41092A20464
:104A2000DAC08091A204882309F0D5C0E2E0F4E066
:104A300064918F0108C08DE99AE00E94DF0D0F5F3D
:104A40001F4FF80164916623B1F7E8EFF3E064913A
:104A50008F0108C08DE99AE00E94DF0D0F5F1F4FA4
:104A6000F80164916623B1F78DE99AE06AE00E944B
:104A7000DF0D1EE8E12E11E0F12EF70164918701B0
:104A800008C08DE99AE00E94DF0D0F5F1F4FF8010B
:104A900064916623B1F7E8EEF3E064918F0108C0FA
:104AA0008DE99AE00E94DF0D0F5F1F4FF8016491BE
:104AB0006623B1F7EDEDF3E064918F0108C08DE955
:104AC0009AE00E94DF0D0F5F1F4FF801649166238B
:104AD000B1F7E1EDF3E064918F0108C08DE99AE050
:104AE0000E94DF0D0F5F1F4FF80164916623B1F73D
:104AF000E4ECF3E064918F0108C08DE99AE00E9434
:104B0000DF0D0F5F1F4FF80164916623B1F78DE948
:104B10009AE06AE00E94DF0D81E08093A204809118
:104B2000A304882309F057C0F70164910EE811E04F
:104B300008C08DE99AE00E94DF0D0F5F1F4FF8015A
:104B400064916623B1F7E5EBF3E064918F0108C04F
:104B50008DE99AE00E94DF0D0F5F1F4FF80164910D
:104B60006623B1F720911D0230911E02CE010196FD
:104B70002115310519F4885A9A4002C0821B930B03
:104B80009A83898349815A81662757FD6095762FDC
:104B90008DE99AE00E942655EEE9F3E064918F01D9
:104BA00008C08DE99AE00E94DF0D0F5F1F4FF801EA
:104BB00064916623B1F78DE99AE040ED54E060E03E
:104BC00070E00E9426558DE99AE06AE00E94DF0DB0
:104BD00081E08093A3048091A0049091A1040397A5
:104BE0000CF4DDDC8091A0049091A104892BC1F02C
:104BF0000E94A6128091A0049091A1040197909325
:104C0000A1048093A00480910E0390910F0301965C
:104C100064E070E00E947A5C90930F0380930E032F
:104C20000E94294781E00E94BF0F0E949D430F9080
:104C30000F90CF91DF911F910F91FF90EF9008950A
:104C40000F931F93CF93DF938DE99AE040E950EDE6
:104C500063E070E00E947D571092980410929904CE
:104C600010929A0410929B0480E00E94F70DC0E01D
:104C7000D0E08E010C501B4FFE01E853FB4F6081CA
:104C80007181828193810E944959FE01E854FB4F52
:104C900020813181428153810E94895B0E941D598C
:104CA000F80160837183828393832496C031D10598
:104CB00001F70E94694B6AD70E94A43CDF91CF9113
:104CC0001F910F9108952F923F924F925F926F9292
:104CD0007F928F929F92AF92BF92CF92DF92EF928C
:104CE000FF920F931F93DF93CF93CDB7DEB7CD55D0
:104CF000D0400FB6F894DEBF0FBECDBF2F969FAF4A
:104D00008EAF2F9761967FAF6EAF61972A01629643
:104D10002FAF629763960FAF63976496EFAE649779
:104D20006896ACAEBDAECEAEDFAE6897E22EFF2485
:104D3000EE0CFF1CEE0CFF1C9A012E0D3F1D2D9654
:104D40003FAF2EAF2D97D9016D907D908D909C90A7
:104D5000FC01EE0DFF1DC401B301208131814281B0
:104D600053810E94D05769AF7AAF8BAF9CAF10E0F0
:104D7000000F111F000F111FF201E00FF11F2B9602
:104D8000FFAFEEAF2B97A080B180C280D3802F966B
:104D9000EEADFFAD2F97E00FF11FC601B5012081E9
:104DA0003181428153810E94D0576DAB7EAB8FAB76
:104DB00098AF64962FAD6497E22FF0E0EE0FFF1FDF
:104DC000EE0FFF1F2F96AEADBFAD2F97AE0FBF1FDB
:104DD0004D915D916D917C9129964CAF5DAF6EAF19
:104DE0007FAF299761966EAD7FAD6197E60FF71F94
:104DF000608171818281938129962CAD3DAD4EAD4C
:104E00005FAD29970E94CF5769AB7AAB8BAB9CAB58
:104E10006196AEADBFAD61971C968D919D910D9041
:104E2000BC91A02D25968CAF9DAFAEAFBFAF25979F
:104E30002F96AEADBFAD2F971C962D913D914D9104
:104E40005C911F9721962CAF3DAF4EAF5FAF21977E
:104E5000A401930150582DA73EA74FA758ABB60108
:104E6000A501705849A75AA76BA77CA761966EAD9C
:104E70007FAD6197E60EF71ED7016D917D918D9103
:104E80009C9129AD3AAD4BAD5CAD0E94CF573B0133
:104E90004C016196EEADFFAD61970E0F1F1FD8015B
:104EA0006D917D918D919C912DA93EA94FA958ADF1
:104EB0000E94CF575B016C016DA57EA58FA598A9B7
:104EC000A60195010E94895B7B018C0169A57AA5E9
:104ED0008BA59CA5A40193010E94895B9B01AC0159
:104EE000C801B7010E94CF571B012C016DA57EA5FB
:104EF0008FA598A9A40193010E94895B7B018C0175
:104F000069A57AA58BA59CA5A60195010E94895B40
:104F10009B01AC01C801B7010E94D0579B01AC01B5
:104F2000C201B1010E9443585B016C0120E030E0F6
:104F300040E050E00E94A958882354F4C601B5010E
:104F40002BED3FE049EC50E40E94D0575B016C012F
:104F5000E7968FADE797882351F0C601B5012BED99
:104F60003FE049EC50E40E94CF575B016C01C60161
:104F7000B501E6962CAD3DAD4EAD5FADE6970E9416
:104F8000895B29A93AA94BA95CA95F770E94C45AF9
:104F90007B018C012FE632E143E85AE30E94A958D5
:104FA00087FDF0C1C801B7010E9486590E941D59B2
:104FB00078A76FA3672B21F4E1E0F0E0F8A7EFA357
:104FC0002FA138A5B90180E090E00E9449597B01EA
:104FD0008C01C601B501A80197010E94B0586BA3CE
:104FE0007CA38DA39EA369A97AA98BA99CA9A801DA
:104FF00097010E94B0586F8F78A389A39AA3259632
:105000006CAD7DAD8EAD9FAD259721962CAD3DADA0
:105010004EAD5FAD21970E94CF57A80197010E9426
:10502000B0586B8F7C8F8D8F9E8F6BA17CA18DA1D3
:105030009EA120E030E040E05FEB0E94895B2BA165
:105040003CA14DA15EA10E94895B20E030E040E8D8
:105050005FE30E94D0576F8B788F898F9A8F649609
:105060003FAD6497E32FF0E0EE0FFF1FEE0FFF1F41
:105070009E012F5F3F4FE20FF31F29964CAD5DADB0
:105080006EAD7FAD299740835183628373832F96E2
:10509000AEADBFAD2F971C964D915D916D917C91FA
:1050A0001F974D875E876F87788B41E050E05A8B62
:1050B000498B662462967FAD6297672F70E0660F1A
:1050C000771F660F771FC901860F971F6A969FAFDC
:1050D0008EAF6A976396BFAD6397AB2FB0E0AA0F10
:1050E000BB1FAA0FBB1F21E030E02C0F3D1F2A0F72
:1050F0003B1F6C963FAF2EAF6C976E96FFAFEEAF37
:105100006E9715C138E136150CF446C06DA57EA525
:105110008FA598A92BA13CA14DA15EA10E94895BFE
:105120007B018C0169A57AA58BA59CA52F89388D5B
:10513000498D5A8D0E94895B9B01AC01C801B70162
:105140000E94D0577B018C016DA57EA58FA598A9E3
:105150002F89388D498D5A8D0E94895B5B016C01C6
:1051600069A57AA58BA59CA52BA13CA14DA15EA10B
:105170000E94895B9B01AC01C601B5010E94CF571B
:105180006DA77EA78FA798AB6394C701D80189A7A5
:105190009AA7ABA7BCA765C049895A89BA0180E024
:1051A00090E00E9449592BA13CA14DA15EA10E9413
:1051B000895B7B018C01C8010E94AD586B8B7C8B95
:1051C0008D8B9E8BB701C8010E94EC5B3B014C01AB
:1051D0002D96AEADBFAD2D97ED90FD900D911C912C
:1051E00017FB109517F910952B96EEADFFAD2B9789
:1051F0002080318042805380C801B7012B893C89CF
:105200004D895E890E94895B5B016C01C201B1011D
:10521000A40193010E94895B9B01AC01C601B50109
:105220000E94D0576DA77EA78FA798ABC801B70182
:10523000A40193010E94895B7B018C01C201B10131
:105240002B893C894D895E890E94895B9B01AC0159
:10525000C801B7010E94CF5769A77AA78BA79CA75F
:10526000662469AD7AAD8BAD9CAD2DA53EA54FA54D
:1052700058A90E94D0576A96AEADBFAD6A976D939C
:105280007D938D939C9313976DA97EA98FA998AD5B
:1052900029A53AA54BA55CA50E94D0576C96EEAD0A
:1052A000FFAD6C9760837183828393836E96AEADFE
:1052B000BFAD6E976D917D918D919C912F8D38A191
:1052C00049A15AA10E94D0576E96EEADFFAD6E97E0
:1052D00060837183828393836D857E858F859889B2
:1052E0002B8D3C8D4D8D5E8D0E94D0576D877E87B6
:1052F0008F87988BCE010196BE016B5F7F4FAE0109
:10530000475F5F4F9E01235F3F4F6896ECACFDAC5B
:105310000EAD1FAD6897F7E7CF2ED12CCC0EDD1E5A
:10532000F8D629893A892F5F3F4F3A8B298B4989D3
:105330005A896FA178A54617570708F4E3CE6196FE
:105340004EAD5FAD6197485F5F4F61962EAD3FAD4B
:105350006197245F3F4F61968EAD9FAD6197DC01F1
:1053600014966196BFAFAEAF6197BD016896ECAC85
:10537000FDAC0EAD1FAD6897E7E7CE2ED12CCC0E5D
:10538000DD1EC7D6C35ADF4F0FB6F894DEBF0FBE7F
:10539000CDBFCF91DF911F910F91FF90EF90DF90E4
:1053A000CF90BF90AF909F908F907F906F905F90C5
:1053B0004F903F902F9008958093E7090895FC0146
:1053C00060817181828193812091C4043091C504F0
:1053D0004091C6045091C7040E94895B0E94595BAA
:1053E0006093100570931105809312059093130537
:1053F00080E195E00C94263DAF92BF92CF92DF9270
:10540000EF92FF920F931F93FC017B016A015901F8
:1054100060817181828193812091B8043091B904B7
:105420004091BA045091BB040E94895B0E94595B71
:1054300004E015E06093040570930505809306056C
:1054400090930705F701608171818281938120919A
:10545000BC043091BD044091BE045091BF040E9431
:10546000895B0E94595B60930805709309058093DE
:105470000A0590930B05F601608171818281938109
:105480002091C0043091C1044091C2045091C304E2
:105490000E94895B0E94595B28E0E22EF12CE00E0D
:1054A000F11E60930C0570930D0580930E0590938B
:1054B0000F05F50160817181828193812091C4047F
:1054C0003091C5044091C6045091C7040E94895B85
:1054D0000E94595B9801245F3F4F609310057093C1
:1054E00011058093120590931305C8010C5F1F4F9F
:1054F000B801A7010E94EC3C80E090E0A0E0B0E0A1
:105500008093E8099093E909A093EA09B093EB0925
:105510008093EC099093ED09A093EE09B093EF0905
:105520008093F0099093F109A093F209B093F309E5
:105530008093F4099093F509A093F609B093F709C5
:105540008093F8099093F909A093FA09B093FB09A5
:105550001F910F91FF90EF90DF90CF90BF90AF9091
:1055600008958F929F92AF92BF92CF92DF92EF9267
:10557000FF920F931F93CF93DF93EC016B01009782
:1055800009F45CC08FA9882309F058C0EEA0FFA0E1
:1055900008A519A5FB01B6A0A7A090A481A4C801E5
:1055A000B7012B2D3A2D492D582D0E94A95888233B
:1055B0000CF044C0C801B701A80197010E94895BA3
:1055C0007B018C016AA97BA98CA99DA9905820E038
:1055D00030E040E050EC0E94895B2EA53FA548A931
:1055E00059A90E94895B9B01AC01C801B7010E94C7
:1055F000D0570E94F65B7B018C016B2D7A2D892D93
:10560000982D9701A8010E94A958882324F4EB2C17
:10561000FA2C092D182D6B2D7A2D892D982D970197
:10562000A8010E94A958882349F0C701D801F601B2
:1056300086A397A3A0A7B1A781E086ABDF91CF9106
:105640001F910F91FF90EF90DF90CF90BF90AF90A0
:105650009F908F900895EF92FF920F931F93CF9397
:10566000DF93F090E60900E010E020E030E04DE448
:10567000E42E11C0FE9CE0011124CB5EDA4FC9017B
:10568000B801AE016EDF8F2D8F5F803109F480E0AD
:10569000F82E98018E018091E509F81659F7C90195
:1056A000B80140E050E05DDFDF91CF911F910F9195
:1056B000FF90EF900895AF92BF92CF92DF92EF925A
:1056C000FF920F931F93CF93DF93EB018A01611534
:1056D000710509F466C04115510509F462C0DAA4E8
:1056E000CBA4BCA4ADA46EA17FA188A599A52D2DA6
:1056F0003C2D4B2D5A2D0E94A958882309F451C0E6
:105700008FA9882309F043C0F801E6A0F7A000A5FF
:1057100011A56D2D7C2D8B2D9A2DA80197010E942E
:10572000B75A1816A4F5C801B701A80197010E943D
:10573000895B7B018C016AA97BA98CA99DA99058E2
:1057400020E030E040E050EC0E94895B2EA53FA5B0
:1057500048A959A90E94895B9B01AC01C801B70106
:105760000E94D0570E94F65B7B018C016D2D7C2D31
:105770008B2D9A2D9701A8010E94A958882324F403
:10578000ED2CFC2C0B2D1A2DC701D80104C08D2D3A
:105790009C2DAB2DBA2D8EA39FA3A8A7B9A781E0FE
:1057A0008EABDF91CF911F910F91FF90EF90DF9023
:1057B000CF90BF90AF900895CF92DF92EF92FF927B
:1057C0000F93DF93CF9300D0CDB7DEB78091E5097B
:1057D0008FB7F894F090E6098FBF8091E50990E0CB
:1057E00040968F1991098F7090700497FCF000918A
:1057F000E50903500F70CC24DD2440E050E06DE457
:10580000E62E12C0802F002309F480E1082F0150FA
:105810000E9DC00111248B5E9A4F9A838983B60135
:105820004ADFA601C980DA800F1561F70F900F904B
:10583000CF91DF910F91FF90EF90DF90CF9008957F
:105840003F924F925F926F927F928F929F92AF9210
:10585000BF92CF92DF92EF92FF920F931F93CF935D
:10586000DF9380911405882309F400C18091460AD2
:105870009091470A60E00E9405468090FB0190905D
:10588000FC01A090FD01B090FE0120E030E040E07E
:1058900050E40E94D057A50194010E94A95887FDA9
:1058A000E5C03090E6090F2EF0E04F2EF0E05F2EBD
:1058B000F0E06F2EF0E07F2EF02DCDE4D0E058C068
:1058C000232D30E02C9FF0012D9FF00D3C9FF00D1B
:1058D0001124EB5EFA4F80819181A281B381009700
:1058E000A105B10581F484819581A681B7810097D6
:1058F000A105B10541F480859185A285B385009706
:10590000A105B10591F12C9F60012D9FD00C3C9F0A
:10591000D00C112485E195E0C80ED91EF6016485EE
:105920007585868597850E944B597B018C01F60110
:1059300060897189828993890E9449599B01AC01D0
:10594000C801B7010E94B058F60122A133A144A1B9
:1059500055A10E94895B7B018C01A30192010E94E9
:10596000B75A181614F4270138013394FFE03F2288
:105970008091E509381609F0A3CFC301B201209147
:10598000FF013091000240910102509102020E94F9
:10599000895B9B01AC01C501B4010E94D0577B011A
:1059A0008C01A50194010E94A95887FD02C04701FE
:1059B00058011091F7010091F801F090F901E09081
:1059C000FA01C501B401212F302F4F2D5E2D0E9409
:1059D000B75A181634F4812F902FAF2DBE2D4C01DD
:1059E0005D014090FC095090FD096090FE097090A7
:1059F000FF09C301B201A50194010E94B75A18160C
:105A0000C4F4C501B40120E037ED43EA5CE30E9431
:105A1000895B7B018C01C301B20128E431EE4AE7C6
:105A20005FE30E94895BA80197010E94D0574B0158
:105A30005C018092FC099092FD09A092FE09B0924F
:105A4000FF09C501B4010E941859DC01CB0160E0D7
:105A50000E94DF489093470A8093460A80924E0A3C
:105A600090924F0AA092500AB092510ADF91CF91C2
:105A70001F910F91FF90EF90DF90CF90BF90AF906C
:105A80009F908F907F906F905F904F903F90089580
:105A9000CF93DF939091E6098091E509981709F477
:105AA00042C04091E609242F30E08DE490E0289F29
:105AB000F001299FF00D389FF00D1124E35AFA4FA1
:105AC000708160E050E0CDE4D0E028C0242F30E0C9
:105AD0002C9FF0012D9FF00D3C9FF00D1124EB5EEB
